:020000040800F2
:10000000000002204509000895090008950900082C
:1000100095090008950900089509000800000000EE
:10002000000000000000000000000000950900082A
:1000300095090008000000009509000895090008CE
:100040009509000895090008950900089509000818
:100050009509000895090008950900089509000808
:1000600095090008950900089509000895090008F8
:1000700095090008950900089509000895090008E8
:1000800095090008950900089509000895090008D8
:1000900095090008950900089509000895090008C8
:1000A00095090008950900089509000895090008B8
:1000B00069050008950900089509000895090008D8
:1000C0009509000895090008950900089509000898
:1000D00095090008A9040008950900089509000879
:1000E0009509000895090008950900089509000878
:1000F0009509000895090008950900089509000868
:100100009509000895090008950900089509000857
:100110009509000895090008950900089509000847
:100120009509000895090008950900089509000837
:100130009509000895090008950900089509000827
:100140009509000895090008950900089509000817
:100150009509000895090008950900089509000807
:1001600095090008950900089509000895090008F7
:1001700095090008950900089509000895090008E7
:0801800095090008950900082B
:1001880008B540F21C00074BC2F200001B1A062BF0
:1001980000D808BD40F20003C0F20003002BF8D0DD
:1001A8009847F6E71F00002008B540F21C0040F20F
:1001B8001C03C2F20000C2F200031B1A9B1003EBDF
:1001C800D373591000D108BD40F20002C0F20002FA
:1001D800002AF8D09047F6E710B540F21C04C2F2A6
:1001E8000004237873B9FFF7CBFF40F20003C0F295
:1001F80000032BB140F60C20C0F60000AFF30080DE
:100208000123237010BD00BF08B540F20003C0F2FF
:1002180000034BB140F60C2040F22001C0F600006C
:10022800C2F20001AFF3008040F21800C2F20000F1
:1002380003682BB140F20003C0F2000303B19847F2
:10024800BDE80840FFF7B0BF0A4B0B4970B41C6803
:10025800D3F8045C621CA1FB0261C90A1C1901EBFA
:100268004101A2EB8122013520711A60C3F8045CB8
:1002780070BC704738000020ABAAAAAAF0B4184C8A
:10028800184D276B55F8206005EB80053E436869DB
:10029800266303254C00066805FA04F5ED4302FAC7
:1002A80004F22E40164306604268012606FA01F65B
:1002B80003FA01F322EA06021A43426083689DF8B2
:1002C80010202B4002FA04F213438360C3689DF8A0
:1002D80014201D4002FA04F42C43C460F0BC70479B
:1002E80000380240E409000870B40F4B0F4C1E6B35
:1002F80054F8205004EB8004072946EA05001863E7
:1003080063690DD8203389001C680F2000FA01F0BA
:1003180024EA000002FA01F10143196070BC704739
:1003280024330839EFE700BF00380240E409000829
:10033800054A064B116B41F0080111631A6842F037
:10034800AA421A60704700BF00380240000C024001
:1003580030B40F4C656925F47045656118B1606962
:1003680040F48050606121B10949486940F4005067
:10037800486122B1064A516941F48041516123B173
:10038800034B5A6942F400425A6130BC704700BFBF
:10039800000C0240024B5A6922F470425A617047BD
:1003A800000C02402DE9F0412E4A804602F58054A7
:1003B8002D481160002182B06160A16040F8EC1CFA
:1003C8000332E31C02F8011F00249A42FAD1274B9A
:1003D800274D1A6B42F002021A635E6C46F0100653
:1003E8005E64012006210722FFF77EFF0126072110
:1003F80002270A463046FFF777FF304606213A467D
:10040800234600970196FFF739FF304607213A4601
:10041800234600970196FFF731FF1649164A2C82AA
:1004280008FA07F8B1FBF8F1A2FB01035B096420A5
:1004380003FB101109013231A2FB0102C2F343127E
:1004480042EA03132C22AA812520AC822B8100F0DA
:100458009BF8AB899BB243F40053AB8102B0BDE873
:10046800F08100BFD00C0020C81D002000380240D9
:100478000010014000C2EB0B1F85EB5161B1074A28
:10048800411810F8013B9380138803F040039BB296
:10049800002BF9D08842F4D1704700BF001001400A
:1004A80010B50C4C238803F020039BB283B1A088BD
:1004B800094BC0B21B6898472388084A23F02003D9
:1004C80052F8EC1C1B041B0C0131238042F8EC1C75
:1004D80010BD00BF00100140D00C0020C81D002036
:1004E8000D4A116C4FF0804341F0010111640F2255
:1004F8001A854FF47A72DA629A8992B242F001024E
:100508009A811A8892B242F081021A801C20012234
:100518009A8200F039B800BF00380240044B1A68CC
:100528004FF080434FF47A705B6A00FB02307047EB
:10053800E01C002030B409494FF080450A686B6A16
:100548004FF47A7404FB0233181805D00A686B6AF2
:1005580004FB02339842F9D830BC7047E01C0020F5
:100568004FF080431B8ADB0703D5064B1A6801321C
:100578001A604FF08042138A23F001031B041B0CFE
:1005880013827047E01C0020012300F01F0003FACB
:1005980000F0014B1860704700E100E0012300F013
:1005A8001F0003FA00F0024BC3F88000704700BF39
:1005B80000E100E010B5102882B00B4613D81906E8
:1005C80011D411060FD400F00F0060F06F0403215E
:1005D80001A88DF804408DF805308DF80620FFF746
:1005E8004DFF012000E0002002B010BD10B510281A
:1005F80082B00B4613D8190611D411060FD400F097
:100608000F0060F07F04032101A88DF804408DF8E5
:1006180005308DF80620FFF731FF012000E00020AB
:1006280002B010BD10B5102882B00B4613D81906B9
:1006380011D411060FD400F00F0060F05F040321FD
:1006480001A88DF804408DF805308DF80620FFF7D5
:1006580015FF012000E0002002B010BD10B51028E1
:1006680082B00B4613D8190611D411060FD400F026
:100678000F0060F04F04032101A88DF804408DF8A5
:1006880005308DF80620FFF7F9FE012000E0002074
:1006980002B010BD00B5102883B00B460FD80A066B
:1006A8000DD400F00F0060F03F02022101A88DF880
:1006B80004208DF80530FFF7E1FE012000E000205E
:1006C80003B000BD00B5102883B00B460FD819063B
:1006D8000DD400F00F0060F02F02022101A88DF860
:1006E80004208DF80530FFF7C9FE012000E0002046
:1006F80003B000BD10B5102882B00B4613D81906F8
:1007080011D411060FD400F00F0060F01F0403216C
:1007180001A88DF804408DF805308DF80620FFF704
:10072800ADFE012000E0002002B010BD0C4B19689E
:10073800002241F0010119609A60196821F0847162
:1007480021F48031196007495960196821F4802122
:100758001960DA60044B4FF000629A60704700BF7E
:10076800003802401030002400ED00E0164B9A6873
:1007780002F00C02042A0CD0082A0CD0134A1249A1
:10078800134B8968C1F30311595C22FA01F21A610B
:100798007047104AF3E7586859685B6842024CBFD3
:1007A8000C4A0A4A01F03F01C3F38813B2FBF1F285
:1007B80002FB03F2044B5B68C3F3014301335B00A4
:1007C800B2FBF3F2DBE700BF003802400024F4007C
:1007D8000400002040787D01300A00080000002055
:1007E800180000201C000020E41C00202DE9F8431C
:1007F800FFF7BCFF4E4C4F4BC4F8083CFFF798FD81
:10080800FFF76EFED4F8081C47F61220FFF7CAFD62
:1008180004F6084304F68841002243F8042F002612
:100828008B42FAD101203146324603462660C4F88D
:100838008C6CC4F8906CC4F8946CC4F8046CFFF722
:1008480087FD3B4D3C4FB046D4F8043C022B32D9CF
:10085800D5F88C3C29685E1C9A1CA7FB069CA7FB54
:10086800029E4FEADC2C4FEADE2E0CEB4C0C0EEB12
:100878004E0E0020A6EB8C26A2EB8E2299422E4427
:100888002A4416D031791279FFF794FED5F8906C86
:10089800FFF744FED5F8903C00F5F420013305EB52
:1008A800860600F5907003F01F03C6F80C0CC5F817
:1008B800903CC4F8048CD4F8943C04EB8303D3F83C
:1008C8000C6CFFF72BFE8642BED9D5F88C3C296804
:1008D8005E1C9A1CA7FB06ECA7FB029E4FEADC2CC9
:1008E8004FEADE2E0CEB4C0C0EEB4E0E0020A6EB66
:1008F8008C26A2EB8E2299422E442A440FD01279DC
:100908003179FFF773FED5F88C3C0333A7FB03E27C
:10091800D20A02EB4202A3EB8223C5F88C3CD4F83E
:10092800943C013303F01F03C4F8943C8CE700BFE8
:100938003800002051020008ABAAAAAA002100F042
:1009480004B80D4B5B58435004310C480C4B42180B
:100958009A42FFF4F6AF0B4A00F003B8002342F8BE
:10096800043B094B9A42FFF4F9AFFFF7DFFE00F0B2
:100978000FF8FFF73BFF7047300A0008000000201F
:10098800180000201C000020E41C0020FFF7FEBF18
:1009980070B500240D4B0E4D1E46ED1AAD1003E048
:1009A80056F8242001349047AC42F9D100F02CF8D5
:1009B800084D094B0024ED1A1E46AD1003E056F809
:1009C800242001349047AC42F9D170BD280A0008B0
:1009D800280A00082C0A0008280A0008010000005C
:1009E80002000000040000000800000010000000E1
:1009F800000002400004024000080240000C0240CF
:100A08000010024000000000F8B500BFF8BC08BCA8
:100A18009E467047F8B500BFF8BC08BC9E467047B4
:040A280011020008AF
:040A2C00E1010008DC
:100A300000000000000000000000000001020304AC
:080A4000060708090024F40078
:040A480000000000AA
:0400000508000945A1
:00000001FF
