:020000040800F2
:10000000FFFF0020150900086509000865090008C0
:10001000650900086509000865090008000000007E
:10002000000000000000000000000000650900085A
:10003000650900080000000065090008650900085E
:1000400065090008650900086509000865090008D8
:1000500065090008650900086509000865090008C8
:1000600065090008650900086509000865090008B8
:1000700065090008650900086509000865090008A8
:100080006509000865090008650900086509000898
:100090006509000865090008650900086509000888
:1000A0006509000865090008650900086509000878
:1000B0004105000865090008650900086509000890
:1000C0006509000865090008650900086509000858
:1000D00065090008B1040008650900086509000801
:1000E0006509000865090008650900086509000838
:1000F0006509000865090008650900086509000828
:100100006509000865090008650900086509000817
:100110006509000865090008650900086509000807
:1001200065090008650900086509000865090008F7
:1001300065090008650900086509000865090008E7
:1001400065090008650900086509000865090008D7
:1001500065090008650900086509000865090008C7
:1001600065090008650900086509000865090008B7
:1001700065090008650900086509000865090008A7
:0801800065090008650900088B
:1001880008B540F21C00074BC2F200001B1A062BF0
:1001980000D808BD40F20003C0F20003002BF8D0DD
:1001A8009847F6E71F00002008B540F21C0040F20F
:1001B8001C03C2F20000C2F200031B1A9B1003EBDF
:1001C800D373591000D108BD40F20002C0F20002FA
:1001D800002AF8D09047F6E710B540F21C04C2F2A6
:1001E8000004237873B9FFF7CBFF40F20003C0F295
:1001F80000032BB140F6B410C0F60000AFF3008046
:100208000123237010BD00BF08B540F20003C0F2FF
:1002180000034BB140F6B41040F22001C0F60000D4
:10022800C2F20001AFF3008040F21800C2F20000F1
:1002380003682BB140F20003C0F2000303B19847F2
:10024800BDE80840FFF7B0BF0A4B196870B40A4D03
:10025800D3F830414A1CA5FB026559186D094FF4C3
:10026800967606FB1522013408711A60C3F83041EE
:1002780070BC704738000020B5814E1BF0B4184C94
:10028800184D276B55F8206005EB80053E436869DB
:10029800266303254C00066805FA04F5ED4302FAC7
:1002A80004F22E40164306604268012606FA01F65B
:1002B80003FA01F322EA06021A43426083689DF8B2
:1002C80010202B4002FA04F213438360C3689DF8A0
:1002D80014201D4002FA04F42C43C460F0BC70479B
:1002E80000380240D009000870B40F4B0F4C1E6B49
:1002F80054F8205004EB8004072946EA05001863E7
:1003080063690DD8203389001C680F2000FA01F0BA
:1003180024EA000002FA01F10143196070BC704739
:1003280024330839EFE700BF00380240D00900083D
:10033800054A064B116B41F0080111631A6842F037
:10034800AA421A60704700BF00380240000C024001
:1003580030B40F4C656925F47045656118B1606962
:1003680040F48050606121B10949486940F4005067
:10037800486122B1064A516941F48041516123B173
:10038800034B5A6942F400425A6130BC704700BFBF
:10039800000C0240024B5A6922F470425A617047BD
:1003A800000C0240314B1A6B2DE9F043304F314EAF
:1003B800396042F003021A635A6C2F4D42F0100262
:1003C8005A641A6C002442F4003E83B07C60814673
:1003D800C3F840E0204602210722FFF785FF4FF0CF
:1003E8000108072102270A464046FFF77DFF4046DD
:1003F80039463A4623468DE88001FFF73FFF2346FA
:10040800404607213A468DE88001FFF737FF1B4831
:100418001B49348209FA07F9B0FBF9F0A1FB003255
:100428005209642302FB13031B013233A1FB0303AC
:10043800C3F3431343EA021324222C82B281082215
:10044800AA812520B482AC8233812B8100F088F800
:10045800B3899BB243F40053B381AB899BB243F495
:100468000053AB8103B0BDE8F08300BF0038024001
:100478000002002000100140004400400084D7170B
:100488001F85EB5161B1074A411810F8013B938071
:10049800138803F040039BB2002BF9D08842F4D1B3
:1004A800704700BF0044004038B50A4C238803F069
:1004B80020039BB26BB1084DA0882B68C0B2984747
:1004C80023886A6823F020031B041B0C0132238055
:1004D8006A6038BD00100140000200200D4A116C0E
:1004E8004FF0804341F00101116440F23F621A85E8
:1004F8004FF47A72DA629A8992B242F001029A81D2
:100508001A8892B242F081021A801C2001229A8233
:1005180000F026B800380240014B1868704700BF49
:1005280008020020034A1368C01802D013689842D2
:10053800FCD87047080200204FF080431B8ADB0775
:1005480003D5064B1A6801321A604FF08042138AAD
:1005580023F001031B041B0C1382704708020020C0
:1005680000280346B8BF00F11F035B110122A0EB6E
:10057800431002FA00F0024A42F82300704700BF15
:1005880000E100E000280346B8BF00F11F035B113B
:10059800A0EB4310012202FA00F02033014A42F88E
:1005A8002300704700E100E010B5102882B00B4628
:1005B80013D8190611D411060FD400F00F0060F0FB
:1005C8006F04032101A88DF804408DF805308DF8DB
:1005D8000620FFF757FF012000E0002002B010BD01
:1005E80010B5102882B00B4613D8190611D411067D
:1005F8000FD400F00F0060F07F04032101A88DF8EC
:1006080004408DF805308DF80620FFF73BFF0120E8
:1006180000E0002002B010BD10B5102882B00B46D3
:1006280013D8190611D411060FD400F00F0060F08A
:100638005F04032101A88DF804408DF805308DF87A
:100648000620FFF71FFF012000E0002002B010BDC8
:1006580010B5102882B00B4613D8190611D411060C
:100668000FD400F00F0060F04F04032101A88DF8AB
:1006780004408DF805308DF80620FFF703FF0120B0
:1006880000E0002002B010BD00B5102883B00B4672
:100698000FD80A060DD400F00F0060F03F020221C7
:1006A80001A88DF804208DF80530FFF7EBFE012036
:1006B80000E0002003B000BD00B5102883B00B4651
:1006C8000FD819060DD400F00F0060F02F02022198
:1006D80001A88DF804208DF80530FFF7D3FE01201E
:1006E80000E0002003B000BD10B5102882B00B4612
:1006F80013D8190611D411060FD400F00F0060F0BA
:100708001F04032101A88DF804408DF805308DF8E9
:100718000620FFF7B7FE012000E0002002B010BD60
:100728000C4B1968002241F0010119609A601968A0
:1007380021F0847121F480311960074959601968E2
:1007480021F480211960DA60044B4FF000629A604E
:10075800704700BF003802401030002400ED00E070
:10076800164B9A6802F00C02042A0CD0082A0CD006
:10077800134A1249134B8968C1F30311595C22FAD1
:1007880001F21A617047104AF3E7586859685B68C4
:1007980042024CBF0C4A0A4A01F03F01C3F38813D6
:1007A800B2FBF1F202FB03F2044B5B68C3F30143B3
:1007B80001335B00B2FBF3F2DBE700BF0038024015
:1007C8000024F4000400002040787D01000A00089D
:1007D80000000020180000201C0000200C0200204F
:1007E8002DE9F047FFF7BCFF454D464BC5F83431BE
:1007F800FFF79EFDFFF772FED5F8341147F6122079
:10080800FFF7D0FD05F59A7305F5DA71002243F874
:10081800042F00248B42FAD1012620462146224685
:1008280033462C60C5F8B841C5F8BC41C5F8C0418D
:10083800C5F8304185F8C461FFF78AFD304CDFF810
:10084800C8A04FF49679D5F83031022B2BD9D4F8BB
:10085800B83121680020994204EB030223D0517972
:100868009279FFF7A1FED4F8BC61FFF755FE94F822
:10087800C4E104EB860C8EF0010E471D06F1010859
:100888000020734608F01F0601460246CCF838716E
:10089800C4F8BC6184F8C4E1FFF75AFDD4F83031DC
:1008A800033BC4F83031D5F8C031D5F8BC219A42A1
:1008B800C9D004EB8303D3F83881FFF72DFE8045B8
:1008C800C1D9D4F8B83121680020994204EB030259
:1008D800B9D051799279FFF783FED4F8B831D4F8BA
:1008E800C0210333AAFB03014909013209FB113373
:1008F80002F01F02C4F8B831C4F8C021A3E700BF52
:100908003800002051020008B5814E1B002100F07C
:1009180004B80D4B5B58435004310C480C4B42183B
:100928009A42FFF4F6AF0B4A00F003B8002342F8EE
:10093800043B094B9A42FFF4F9AFFFF7F1FE00F0D0
:100948000FF8FFF74DFF7047000A0008000000206D
:10095800180000201C0000200C020020FFF7FEBF3A
:1009680070B500240D4B0E4D1E46ED1AAD1003E078
:1009780056F8242001349047AC42F9D100F018F819
:10098800084D094B0024ED1A1E46AD1003E056F839
:10099800242001349047AC42F9D170BDF809000811
:1009A800F8090008FC090008F80900080000000020
:1009B800F8B500BFF8BC08BC9E467047F8B500BF44
:0809C800F8BC08BC9E46704714
:1009D0000100000002000000040000000800000008
:1009E0001000000000000240000402400008024025
:0809F000000C0240001002405F
:0409F80011020008E0
:0409FC00E10100080D
:100A000000000000000000000000000001020304DC
:080A1000060708090024F400A8
:040A180000000000DA
:0400000508000915D1
:00000001FF
