:020000040800F2
:1000000000000220C1090008110A0008110A0008B6
:10001000110A0008110A0008110A00080000000077
:10002000000000000000000000000000110A0008AD
:10003000110A000800000000110A0008110A000857
:10004000110A0008110A0008110A0008110A000824
:10005000110A0008110A0008110A0008110A000814
:10006000110A0008110A0008110A0008110A000804
:10007000110A0008110A0008110A0008110A0008F4
:10008000110A0008110A0008110A0008110A0008E4
:10009000110A0008110A0008110A0008110A0008D4
:1000A000110A0008110A0008110A0008110A0008C4
:1000B000B1050008110A0008110A0008110A000819
:1000C000110A0008110A0008110A0008110A0008A4
:1000D000110A000805050008110A0008110A0008A5
:1000E000110A0008110A0008110A0008110A000884
:1000F000110A0008110A0008110A0008110A000874
:10010000110A0008110A0008110A0008110A000863
:10011000110A0008110A0008110A0008110A000853
:10012000110A0008110A0008DD040008110A00087D
:10013000110A0008110A0008110A0008110A000833
:10014000110A0008110A0008110A0008110A000823
:10015000110A0008110A0008110A0008110A000813
:10016000110A0008110A0008110A0008110A000803
:10017000110A0008110A0008110A0008110A0008F3
:08018000110A0008110A000831
:1001880008B540F21C00074BC2F200001B1A062BF0
:1001980000D808BD40F20003C0F20003002BF8D0DD
:1001A8009847F6E71F00002008B540F21C0040F20F
:1001B8001C03C2F20000C2F200031B1A9B1003EBDF
:1001C800D373591000D108BD40F20002C0F20002FA
:1001D800002AF8D09047F6E710B540F21C04C2F2A6
:1001E8000004237873B9FFF7CBFF40F20003C0F295
:1001F80000032BB140F6A420C0F60000AFF3008046
:100208000123237010BD00BF08B540F20003C0F2FF
:1002180000034BB140F6A42040F22001C0F60000D4
:10022800C2F20001AFF3008040F21800C2F20000F1
:1002380003682BB140F20003C0F2000303B19847F2
:10024800BDE80840FFF7B0BF2DE9F0010D4CDFF81D
:1002580038C094E808010022591CACFB0165E3187A
:10026800865C084F1E720132EB0A03EB4303032A34
:10027800A1EB8323F0D108F103023B607A60BDE86B
:10028800F001704738000020ABAAAAAAF0B4184CB5
:10029800184D276B55F8206005EB80053E436869CB
:1002A800266303254C00066805FA04F5ED4302FAB7
:1002B80004F22E40164306604268012606FA01F64B
:1002C80003FA01F322EA06021A43426083689DF8A2
:1002D80010202B4002FA04F213438360C3689DF890
:1002E80014201D4002FA04F42C43C460F0BC70478B
:1002F80000380240600A000870B40F4B0F4C1E6BA8
:1003080054F8205004EB8004072946EA05001863D6
:1003180063690DD8203389001C680F2000FA01F0AA
:1003280024EA000002FA01F10143196070BC704729
:1003380024330839EFE700BF00380240600A00089C
:10034800054A064B116B41F0080111631A6842F027
:10035800AA421A60704700BF00380240000C0240F1
:1003680030B40F4C656925F47045656118B1606952
:1003780040F48050606121B10949486940F4005057
:10038800486122B1064A516941F48041516123B163
:10039800034B5A6942F400425A6130BC704700BFAF
:1003A800000C0240024B5A6922F470425A617047AD
:1003B800000C024061B1074A411810F8013B9380D4
:1003C800138803F040039BB2002BF9D08842F4D184
:1003D800704700BF0010014010B5094B86B00C46AD
:1003E80000930194074C02460023022069460294B8
:1003F80004930593039200F0C5F906B010BD00BF41
:1004080010050208041001402D4B1A6B2DE9F0432A
:100418002C4E2D4C316042F002021A635F6C0025AD
:1004280047F0100783B08146062101200722756036
:10043800B5605F64FFF760FF012707214FF00208EE
:100448000A463846FFF758FF3846062142462B46EB
:10045800CDF800800197FFF719FF072142462B4688
:100468003846CDF800800197FFF710FF1748184A63
:10047800258209FA08F9B0FBF9F0A2FB00135B0921
:10048800642103FB110000013230A2FB0012C2F309
:10049800431242EA03132C22A2814022A282252081
:1004A800238100F095F806F10C000321FFF794FF73
:1004B800A3899BB243F40053A38103B0BDE8F08342
:1004C80000380240D00C00200010014000C2EB0BA5
:1004D8001F85EB51074A136810B593609B0207D537
:1004E800054C204650F80C3B9847A3680133A3609D
:1004F80010BD00BF00640240D00C0020084A1388D9
:1005080003F020039BB24BB11388064923F0200364
:1005180048681B041B0C013013804860704700BFFB
:1005280000100140D00C00200D4A116C4FF08043A0
:1005380041F0010111640F221A854FF47A72DA62D0
:100548009A8992B242F001029A811A8892B242F0D4
:1005580081021A801C2001229A8200F039B800BF5B
:1005680000380240044B1A684FF080434FF47A7009
:100578005B6A00FB02307047E00C002030B4094988
:100588004FF080450A686B6A4FF47A7404FB0233B3
:10059800181805D00A686B6A04FB02339842F9D828
:1005A80030BC7047E00C00204FF080431B8ADB070B
:1005B80003D5064B1A6801321A604FF08042138A3D
:1005C80023F001031B041B0C13827047E00C00206E
:1005D800012300F01F0003FA00F0014B1860704778
:1005E80000E100E0012300F01F0003FA00F0024BD5
:1005F800C3F88000704700BF00E100E010B5102884
:1006080082B00B4613D8190611D411060FD400F086
:100618000F0060F06F04032101A88DF804408DF8E5
:1006280005308DF80620FFF7C5FE012000E0002008
:1006380002B010BD10B5102882B00B4613D81906A9
:1006480011D411060FD400F00F0060F07F040321CD
:1006580001A88DF804408DF805308DF80620FFF7C5
:10066800A9FE012000E0002002B010BD10B510283E
:1006780082B00B4613D8190611D411060FD400F016
:100688000F0060F05F04032101A88DF804408DF885
:1006980005308DF80620FFF78DFE012000E00020D0
:1006A80002B010BD10B5102882B00B4613D8190639
:1006B80011D411060FD400F00F0060F04F0403218D
:1006C80001A88DF804408DF805308DF80620FFF755
:1006D80071FE012000E0002002B010BD00B5102816
:1006E80083B00B460FD80A060DD400F00F0060F057
:1006F8003F02022101A88DF804208DF80530FFF78C
:1007080059FE012000E0002003B000BD00B510280C
:1007180083B00B460FD819060DD400F00F0060F017
:100728002F02022101A88DF804208DF80530FFF76B
:1007380041FE012000E0002003B000BD10B51028E4
:1007480082B00B4613D8190611D411060FD400F045
:100758000F0060F01F04032101A88DF804408DF8F4
:1007680005308DF80620FFF725FE012000E0002067
:1007780002B010BD024B1A6B42F480021A63704734
:10078800003802400138074B53F8203000221A6025
:100798008A689A60CA68DA604A685A600A681A60A1
:1007A800704700BF880A00080C4B1968002241F006
:1007B800010119609A60196821F0847121F480316F
:1007C800196007495960196821F480211960DA60B5
:1007D800044B4FF000629A60704700BF0038024037
:1007E8001030002400ED00E0164B9A6802F00C026D
:1007F800042A0CD0082A0CD0134A1249134B8968D2
:10080800C1F30311595C22FA01F21A617047104AC8
:10081800F3E7586859685B6842024CBF0C4A0A4AB9
:1008280001F03F01C3F38813B2FBF1F202FB03F2BC
:10083800044B5B68C3F3014301335B00B2FBF3F283
:10084800DBE700BF003802400024F4000400002069
:1008580040787D01C80A0008000000201800002028
:100868001C000020E40C00202DE9F843FFF7BCFF32
:100878004E4C4F4BC4F8083CFFF762FDFFF754FE9F
:10088800D4F8081C47F61220FFF7BEFDFFF772FFE9
:1008980004F6084304F68841002243F8042F002692
:1008A8008B42FAD101203146324603462660C4F80D
:1008B8008C6CC4F8906CC4F8946C6660FFF750FDBB
:1008C8003A4D3C4FB0466368022B32D9D5F88C3C80
:1008D80029685E1C9A1CA7FB069CA7FB029E4FEA90
:1008E800DC2C4FEADE2E0CEB4C0C0EEB4E0E0020EF
:1008F800A6EB8C26A2EB8E2299422E442A4416D0CF
:10090800317A127AFFF77AFED5F8906CFFF72AFE53
:10091800D5F8903C00F5F420013305EB860600F588
:10092800907003F01F03C6F80C0CC5F8903CC4F88F
:100938000480D4F8943C04EB8303D3F80C6CFFF7E1
:1009480011FE8642BFD9D5F88C3C29685E1C9A1CDA
:10095800A7FB06ECA7FB029E4FEADC2C4FEADE2E33
:100968000CEB4C0C0EEB4E0E0020A6EB8C26A2EBEB
:100978008E2299422E442A440FD0127A317AFFF7F8
:1009880059FED5F88C3C0333A7FB03E2D20A02EBED
:100998004202A3EB8223C5F88C3CD4F8943C013383
:1009A80003F01F03C4F8943C8DE700BF3800002013
:1009B80051020008ABAAAAAA002100F004B80D4B06
:1009C8005B58435004310C480C4B42189A42FFF4D0
:1009D800F6AF0B4A00F003B8002342F8043B094B7A
:1009E8009A42FFF4F9AFFFF7DFFE00F00FF8FFF7C8
:1009F8003BFF7047C80A00080000002018000020CC
:100A08001C000020E40C0020FFF7FEBF70B5002496
:100A18000D4B0E4D1E46ED1AAD1003E056F824207E
:100A280001349047AC42F9D100F03AF8084D094B2F
:100A38000024ED1A1E46AD1003E056F824200134B8
:100A48009047AC42F9D170BDC00A0008C00A00083E
:100A5800C40A0008C00A00080100000002000000E3
:100A68000400000008000000100000000000024020
:100A78000004024000080240000C0240001002403E
:100A88002864024040640240586402407064024096
:100A980088640240A0640240B8640240000000007C
:100AA800F8B500BFF8BC08BC9E467047F8B500BF53
:080AB800F8BC08BC9E46704723
:040AC0001102000817
:040AC400E101000844
:100AC8000000000000000000000000000102030414
:080AD800060708090024F400E0
:040AE0000000000012
:04000005080009C125
:00000001FF
