:020000040800F2
:10000000FFFF0020E1090008310A0008310A00085A
:10001000310A0008310A0008310A00080000000017
:10002000000000000000000000000000310A00088D
:10003000310A000800000000310A0008310A0008F7
:10004000310A0008310A0008310A0008310A0008A4
:10005000310A0008310A0008310A0008310A000894
:10006000310A0008310A0008310A0008310A000884
:10007000310A0008310A0008310A0008310A000874
:10008000310A0008310A0008310A0008310A000864
:10009000310A0008310A0008310A0008310A000854
:1000A000310A0008310A0008310A0008310A000844
:1000B0003D050008310A0008310A0008310A00082D
:1000C000310A0008310A0008310A0008310A000824
:1000D000310A000889040008310A0008310A0008C2
:1000E000310A0008310A0008310A0008310A000804
:1000F000310A0008310A0008310A0008310A0008F4
:10010000310A0008310A0008310A0008310A0008E3
:10011000310A0008310A0008310A0008310A0008D3
:10012000310A0008310A000891070008310A000866
:10013000310A0008310A0008310A0008310A0008B3
:10014000310A0008310A0008310A0008310A0008A3
:10015000310A0008310A0008310A0008310A000893
:10016000310A0008310A0008310A0008310A000883
:10017000310A0008310A0008310A0008310A000873
:08018000310A0008310A0008F1
:1001880008B540F21C00074BC2F200001B1A062BF0
:1001980000D808BD40F20003C0F20003002BF8D0DD
:1001A8009847F6E71F00002008B540F21C0040F20F
:1001B8001C03C2F20000C2F200031B1A9B1003EBDF
:1001C800D373591000D108BD40F20002C0F20002FA
:1001D800002AF8D09047F6E710B540F21C04C2F2A6
:1001E8000004237873B9FFF7CBFF40F20003C0F295
:1001F80000032BB140F68020C0F60000AFF300806A
:100208000123237010BD00BF08B540F20003C0F2FF
:1002180000034BB140F6802040F22001C0F60000F8
:10022800C2F20001AFF3008040F21800C2F20000F1
:1002380003682BB140F20003C0F2000303B19847F2
:10024800BDE80840FFF7B0BF0A4B0B4970B41C6803
:10025800D3F8045C621CA1FB0261C90A1C1901EBFA
:100268004101A2EB8122013520711A60C3F8045CB8
:1002780070BC704738000020ABAAAAAAF0B4184C8A
:10028800184D276B55F8206005EB80053E436869DB
:10029800266303254C00066805FA04F5ED4302FAC7
:1002A80004F22E40164306604268012606FA01F65B
:1002B80003FA01F322EA06021A43426083689DF8B2
:1002C80010202B4002FA04F213438360C3689DF8A0
:1002D80014201D4002FA04F42C43C460F0BC70479B
:1002E800003802409C0A000870B40F4B0F4C1E6B7C
:1002F80054F8205004EB8004072946EA05001863E7
:1003080063690DD8203389001C680F2000FA01F0BA
:1003180024EA000002FA01F10143196070BC704739
:1003280024330839EFE700BF003802409C0A000870
:10033800054A064B116B41F0080111631A6842F037
:10034800AA421A60704700BF00380240000C024001
:1003580030B40F4C656925F47045656118B1606962
:1003680040F48050606121B10949486940F4005067
:10037800486122B1064A516941F48041516123B173
:10038800034B5A6942F400425A6130BC704700BFBF
:10039800000C0240024B5A6922F470425A617047BD
:1003A800000C0240284B1A6B2DE9F041274E284CCF
:1003B800316042F002021A635F6C002547F01007B3
:1003C80082B0756080465F64012006210722FFF72E
:1003D8008BFF0126072102270A463046FFF784FFD4
:1003E800304606213A462B4600970196FFF746FF0E
:1003F800072130463A462B4600970196FFF73EFF05
:100408001448154A258208FA07F8B0FBF8F0A2FB51
:1004180000135B09642103FB110000013230A2FBC9
:100428000012C2F3431242EA03132C22A2812520B0
:10043800A582238100F092F8A3899BB243F400536C
:10044800A38102B0BDE8F08100380240D40C00203E
:10045800001001400084D7171F85EB5161B1074A8E
:10046800411810F8013B9380138803F040039BB2B6
:10047800002BF9D08842F4D1704700BF001001402A
:1004880038B50A4C238803F020039BB26BB1084DA2
:10049800A0882B68C0B2984723886A6823F0200395
:1004A8001B041B0C013223806A6038BD0010014018
:1004B800D40C00200D4A116C4FF0804341F001012B
:1004C80011640F221A854FF47A72DA629A8992B20D
:1004D80042F001029A811A8892B242F081021A808F
:1004E8001C2001229A8200F039B800BF003802406F
:1004F800044B1A684FF080434FF47A705B6A00FB34
:1005080002307047DC0C002030B409494FF08045B8
:100518000A686B6A4FF47A7404FB0233181805D022
:100528000A686B6A04FB02339842F9D830BC7047FA
:10053800DC0C00204FF080431B8ADB0703D5064BF9
:100548001A6801321A604FF08042138A23F00103BF
:100558001B041B0C13827047DC0C00200028034688
:10056800B8BF00F11F035B110122A0EB431002FA90
:1005780000F0024A42F82300704700BF00E100E0A3
:1005880000280346B8BF00F11F035B11A0EB43101E
:10059800012202FA00F02033014A42F82300704792
:1005A80000E100E010B5102882B00B4613D81906F8
:1005B80011D411060FD400F00F0060F06F0403216E
:1005C80001A88DF804408DF805308DF80620FFF756
:1005D80045FF012000E0002002B010BD10B5102832
:1005E80082B00B4613D8190611D411060FD400F0A7
:1005F8000F0060F07F04032101A88DF804408DF8F6
:1006080005308DF80620FFF729FF012000E00020C3
:1006180002B010BD10B5102882B00B4613D81906C9
:1006280011D411060FD400F00F0060F05F0403210D
:1006380001A88DF804408DF805308DF80620FFF7E5
:100648000DFF012000E0002002B010BD10B51028F9
:1006580082B00B4613D8190611D411060FD400F036
:100668000F0060F04F04032101A88DF804408DF8B5
:1006780005308DF80620FFF7F1FE012000E000208C
:1006880002B010BD00B5102883B00B460FD80A067B
:100698000DD400F00F0060F03F02022101A88DF890
:1006A80004208DF80530FFF7D9FE012000E0002076
:1006B80003B000BD00B5102883B00B460FD819064B
:1006C8000DD400F00F0060F02F02022101A88DF870
:1006D80004208DF80530FFF7C1FE012000E000205E
:1006E80003B000BD10B5102882B00B4613D8190608
:1006F80011D411060FD400F00F0060F01F0403217D
:1007080001A88DF804408DF805308DF80620FFF714
:10071800A5FE012000E0002002B010BD024B1A6BBC
:1007280042F480021A637047003802400138074BD0
:1007380053F8203000221A608A689A60CA68DA6022
:100748004A685A600A681A60704700BFC40A0008FD
:1007580086B00A4A0A4B00920A4A01910292002284
:1007680003901A60029A9A60039ADA60019A5A60B2
:10077800009A3A201A6006B0FFF7F0BE100502088A
:100788004064024004100140044A136893609B02CD
:1007980003D5034B1A6801321A607047006402409F
:1007A800E00C00200C4B1968002241F0010119608F
:1007B8009A60196821F0847121F480311960074921
:1007C8005960196821F480211960DA60044B4FF0F0
:1007D80000629A60704700BF003802401030002461
:1007E80000ED00E0164B9A6802F00C02042A0CD0C7
:1007F800082A0CD0134A1249134B8968C1F3031114
:10080800595C22FA01F21A617047104AF3E75868F6
:1008180059685B6842024CBF0C4A0A4A01F03F0122
:10082800C3F38813B2FBF1F202FB03F2044B5B68DB
:10083800C3F3014301335B00B2FBF3F2DBE700BF14
:10084800003802400024F4000400002040787D01B4
:10085800E80A000800000020180000201C00002002
:10086800E40C00202DE9F047FFF7BCFF574D584B2B
:10087800C5F8083CFFF75CFDFFF71CFED5F8081C1F
:1008880047F61220FFF78EFDFFF748FF05F60843ED
:1008980005F68841002243F8042F00268B42FAD13E
:1008A8000124234630463146324685F8984C2E605E
:1008B800C5F88C6CC5F8906CC5F8946CC5F8046CD8
:1008C800FFF746FD414C434FB046D5F8043C022B98
:1008D8003FD9D4F88C3C21685E1C9A1CA7FB069C67
:1008E800A7FB029E4FEADC2C4FEADE2E0CEB4C0CE9
:1008F8000EEB4E0E0020A6EB8C26A2EB8E22994220
:100908002644224423D031791279FFF74BFED4F8DC
:1009180090ACFFF7EDFDD4F8903C94F8986C00F596
:10092800F42986F00106002003F1010E04EB8A0C7D
:1009380009F590790EF01F0E014602463346CCF8B1
:100948000C9CC4F890EC84F8986CFFF701FDC5F88E
:10095800048CD5F8943C05EB8303D3F80C6CFFF7B3
:10096800C7FD8642B1D9D4F88C3C21685E1C9A1C1C
:10097800A7FB06ECA7FB029E4FEADC2C4FEADE2E13
:100988000CEB4C0C0EEB4E0E0020A6EB8C26A2EBCB
:100998008E229942264422440FD012793179FFF7EA
:1009A8001DFED4F88C3C0333A7FB03E2D20A02EB0A
:1009B8004202A3EB8223C4F88C3CD5F8943C013363
:1009C80003F01F03C5F8943C7FE700BF3800002000
:1009D80051020008ABAAAAAA002100F004B80D4BE6
:1009E8005B58435004310C480C4B42189A42FFF4B0
:1009F800F6AF0B4A00F003B8002342F8043B094B5A
:100A08009A42FFF4F9AFFFF7CDFE00F00FF8FFF7B9
:100A180029FF7047E80A000800000020180000209D
:100A28001C000020E40C0020FFF7FEBF70B5002476
:100A38000D4B0E4D1E46ED1AAD1003E056F824205E
:100A480001349047AC42F9D100F018F8084D094B31
:100A58000024ED1A1E46AD1003E056F82420013498
:100A68009047AC42F9D170BDE00A0008E00A0008DE
:100A7800E40A0008E00A000800000000F8B500BF1A
:100A8800F8BC08BC9E467047F8B500BFF8BC08BC67
:040A98009E467047BF
:100A9C00010000000200000004000000080000003B
:100AAC001000000000000240000402400008024058
:100ABC00000C0240001002402864024040640240D6
:100ACC00586402407064024088640240A064024092
:040ADC00B8640240B8
:040AE00011020008F7
:040AE400E101000824
:100AE80000000000000000000000000001020304F4
:080AF800060708090024F400C0
:040B000000000000F1
:04000005080009E105
:00000001FF
