:020000040800F2
:100000000000022081150008D1150008D115000854
:10001000D1150008D1150008D11500080000000016
:10002000000000000000000000000000D1150008E2
:10003000D115000800000000D1150008D1150008F6
:10004000D1150008D1150008D1150008D1150008F8
:10005000D1150008D1150008D1150008D1150008E8
:10006000D1150008D1150008D1150008D1150008D8
:10007000D1150008D1150008D1150008D1150008C8
:10008000D1150008D1150008D1150008D1150008B8
:10009000D1150008D1150008D1150008D1150008A8
:1000A000D1150008D1150008D1150008D115000898
:1000B000C5050008D1150008D1150008D1150008A4
:1000C000D1150008D1150008D1150008D115000878
:1000D000D1150008F5040008D1150008D115000855
:1000E000D1150008D1150008D1150008D115000858
:1000F000D1150008D1150008D1150008D115000848
:10010000D1150008D1150008D1150008D115000837
:10011000D1150008D1150008D1150008D115000827
:10012000D1150008D1150008D1150008D115000817
:10013000D1150008D1150008D1150008D115000807
:10014000D1150008D1150008D1150008D1150008F7
:10015000D1150008D1150008D1150008D1150008E7
:10016000D1150008D1150008D1150008D1150008D7
:10017000D1150008D1150008D1150008D1150008C7
:08018000D1150008D11500089B
:1001880008B540F22C00074BC2F200001B1A062BE0
:1001980000D808BD40F20003C0F20003002BF8D0DD
:1001A8009847F6E72F00002008B540F22C0040F2EF
:1001B8002C03C2F20000C2F200031B1A9B1003EBCF
:1001C800D373591000D108BD40F20002C0F20002FA
:1001D800002AF8D09047F6E710B540F22C04C2F296
:1001E8000004237873B9FFF7CBFF40F20003C0F295
:1001F80000032BB141F24860C0F60000AFF3008065
:100208000123237010BD00BF08B540F20003C0F2FF
:1002180000034BB141F2486040F23001C0F60000E3
:10022800C2F20001AFF3008040F22800C2F20000E1
:1002380003682BB140F20003C0F2000303B19847F2
:10024800BDE80840FFF7B0BFF0B4184C184D276B55
:1002580055F8206005EB80053E4368692663032551
:100268004C00066805FA04F5ED4302FA04F22E4044
:10027800164306604268012606FA01F603FA01F3FE
:1002880022EA06021A43426083689DF810202B4038
:1002980002FA04F213438360C3689DF814201D40DA
:1002A80002FA04F42C43C460F0BC704700380240E2
:1002B8002016000870B40F4B0F4C1E6B54F82050DA
:1002C80004EB8004072946EA0500186363690DD822
:1002D800203389001C680F2000FA01F024EA00008E
:1002E80002FA01F10143196070BC704724330839E0
:1002F800EFE700BF0038024020160008074B03EB69
:100308008000436922B9012202FA01F1598370473A
:10031800012202FA01F11983704700BF2016000874
:10032800064B03EB8000012243691B6902FA01F1C5
:1003380019420CBF00200120704700BF201600089A
:10034800054A064B116B41F0080111631A6842F027
:10035800AA421A60704700BF00380240000C0240F1
:1003680030B40F4C656925F47045656118B1606952
:1003780040F48050606121B10949486940F4005057
:10038800486122B1064A516941F48041516123B163
:10039800034B5A6942F400425A6130BC704700BFAF
:1003A800000C0240024B5A6922F470425A617047AD
:1003B800000C0240F0B53149074631480023A1F549
:1003C80080520B604B6089B040F8F03C013A01392B
:1003D80002F8013F00248A42FAD10220012100F0EC
:1003E800E1FB1020012100F00DFC06210722254821
:1003F80000F0ECFD0721012502260A46214800F0FD
:10040800E5FD284606213246234600960195FFF76A
:100418001BFF324607212346284600960195FFF721
:1004280013FF0C234FF4E060ADF81A300497ADF8D1
:100438001440ADF81640ADF81840ADF81C4000F077
:1004480003FA252303A88DF80C308DF80D408DF89C
:100458000E408DF80F5000F001FA04A90A4800F088
:1004680031FE094840F225512A4600F093FF06481C
:100478002946264600F0B6FE09B0F0BDDC20002073
:10048800D4210020000402400010014070B569B179
:10049800074E0446451814F8013BB3800448402130
:1004A80000F094FF0028F9D0AC42F4D170BD00BF31
:1004B80000100140034B58681B68C31A5842584142
:1004C800704700BFDC200020074800F580531A68F9
:1004D8005968914205D0511C0905090D805C1960C5
:1004E80070470020704700BFDC100020F8B5104CA2
:1004F80040F22551204600F073FFC0B10D4E06F5BD
:10050800805520466F6800F0A3FEF0556A6823887E
:10051800094923F0200351F8F00C01321B0412059D
:100528001B0C120D013023806A6041F8F00CF8BDF5
:1005380000100140DC100020D42100200D4A116C6D
:100548004FF0804341F0010111640F221A854FF4E6
:100558007A72DA629A8992B242F001029A811A8812
:1005680092B242F081021A801C2001229A8200F085
:1005780039B800BF00380240044B1A684FF0804376
:100588004FF47A705B6A00FB02307047E820002065
:1005980030B409494FF080450A686B6A4FF47A74A1
:1005A80004FB0233181805D00A686B6A04FB02338F
:1005B8009842F9D830BC7047E82000204FF08043BB
:1005C8001B8ADB0703D5064B1A6801321A604FF005
:1005D8008042138A23F001031B041B0C138270470B
:1005E800E8200020012300F01F0003FA00F0014B6F
:1005F8001860704700E100E0012300F01F0003FAD3
:1006080000F0024BC3F88000704700BF00E100E033
:1006180010B5102882B00B4613D8190611D411064C
:100628000FD400F00F0060F06F04032101A88DF8CB
:1006380004408DF805308DF80620FFF727FF0120CC
:1006480000E0002002B010BD10B5102882B00B46A3
:1006580013D8190611D411060FD400F00F0060F05A
:100668007F04032101A88DF804408DF805308DF82A
:100678000620FFF70BFF012000E0002002B010BDAC
:1006880010B5102882B00B4613D8190611D41106DC
:100698000FD400F00F0060F05F04032101A88DF86B
:1006A80004408DF805308DF80620FFF7EFFE012095
:1006B80000E0002002B010BD10B5102882B00B4633
:1006C80013D8190611D411060FD400F00F0060F0EA
:1006D8004F04032101A88DF804408DF805308DF8EA
:1006E8000620FFF7D3FE012000E0002002B010BD75
:1006F80000B5102883B00B460FD80A060DD400F0B9
:100708000F0060F03F02022101A88DF804208DF847
:100718000530FFF7BBFE012000E0002003B000BD5C
:1007280000B5102883B00B460FD819060DD400F079
:100738000F0060F02F02022101A88DF804208DF827
:100748000530FFF7A3FE012000E0002003B000BD44
:1007580010B5102882B00B4613D8190611D411060B
:100768000FD400F00F0060F01F04032101A88DF8DA
:1007780004408DF805308DF80620FFF787FE01202C
:1007880000E0002002B010BD0C4B1968002241F0B7
:10079800010119609A60196821F0847121F480318F
:1007A800196007495960196821F480211960DA60D5
:1007B800044B4FF000629A60704700BF0038024057
:1007C8001030002400ED00E0164B9A6802F00C028D
:1007D800042A0CD0082A0CD0134A1249134B8968F2
:1007E800C1F30311595C22FA01F21A617047104AE9
:1007F800F3E7586859685B6842024CBF0C4A0A4ADA
:1008080001F03F01C3F38813B2FBF1F202FB03F2DC
:10081800044B5B68C3F3014301335B00B2FBF3F2A3
:10082800DBE700BF003802400024F4000400002089
:1008380000127A006C160008000000202800002032
:100848002C000020EC20002040F0BF60024B40F458
:100858000030D860704700BF00ED00E0C37830B4C6
:1008680063B903780122590903F01F0302FA03F35D
:100878002031154A42F8213030BC7047134B457877
:10088800DA6884780378D243C2F30222C2F1040101
:10089800C9B205FA01F10F2545FA02F2C9B22240A0
:1008A80003F160430A4303F56143120183F800230F
:1008B80003780122590903F01F0302FA03F3024ADD
:1008C80042F82130D8E700BF00E100E000ED00E089
:1008D80021F0604121F07F01014B08439860704787
:1008E80000ED00E0044B1A6919B922EA000018610A
:1008F800704710431861704700ED00E0044B1A6818
:1009080004280CBF42F0040222F004021A60704767
:1009180010E000E00A4B1968002241F0010119605B
:100928009A60196821F0847121F4803119600549B1
:100938005960196821F480211960DA60704700BF96
:100948000038024010300024024B00221A70187040
:10095800704700BF0238024082B000230B4A01935F
:1009680013689B0309D5019B01330193019B074B36
:100978001868C0F3404002B07047019B01330193EF
:10098800019BB3F5A06FEBD1F1E700BF003802403F
:10099800034B1A6822F0F80242EAC0001860704758
:1009A80000380240014B1860704700BF0000474202
:1009B800064B002201281A701A7004D0042801D1AD
:1009C80005221A7070471870704700BF70380240CF
:1009D800014B1860704700BF800E474210B40143B6
:1009E800019C41EA82125B08591E42EA0464034BE7
:1009F80044EA0141596010BC704700BF003802400A
:100A0800014B1860704700BF600047428001034BEC
:100A180040EA0171C3F88410704700BF00380240F3
:100A2800014B1860704700BF68004742014B1860CF
:100A3800704700BF4C004742034B9A6822F0EC62B3
:100A4800104301439960704700380240034B9A688D
:100A580022F0784210430143996070470038024001
:100A6800034B9A6822F0030210439860704700BF56
:100A780000380240024B986800F00C00704700BF35
:100A880000380240034B9A6822F0F0021043986045
:100A9800704700BF00380240034B9A6822F4E052C6
:100AA80010439860704700BF00380240034B9A68B3
:100AB80022F4604242EAC000986070470038024061
:100AC8001F4A936803F00C03042B10B41CD0082BA6
:100AD8001DD01C4B03601A491B4A8C68C4F30314CD
:100AE800145D23FA04F343608C68C4F38224145D14
:100AF80023FA04F484608968C1F34231525C23FA12
:100B080002F3C36010BC7047104B0360E3E75468FE
:100B18005168526864024CBF0C4B0A4B01F03F010C
:100B2800C2F38812B3FBF1F303FB02F3044A5268E1
:100B3800C2F3014201325200B3FBF2F30360CAE789
:100B4800003802400024F4001800002040787D019D
:100B580000F44073B3F5407F09D1084B996820F041
:100B6800704221F4F81122F440720A439A60034B50
:100B780000051A6F000D10431867704700380240CF
:100B8800014B1860704700BF3C0E4742014B18608C
:100B9800704700BF400E4742014B1860704700BFC6
:100BA8005C014742044B1A6B19B922EA000018632A
:100BB800704710431863704700380240044B5A6B63
:100BC80019B922EA00005863704710435863704708
:100BD80000380240044B9A6B19B922EA0000986366
:100BE800704710439863704700380240044B1A6CF2
:100BF80019B922EA00001864704710431864704756
:100C080000380240044B5A6C19B922EA00005864B3
:100C1800704710435864704700380240044B1A6903
:100C280019B922EA0000186170471043186170472B
:100C380000380240044B5A6919B922EA0000586189
:100C4800704710435861704700380240044B9A6956
:100C580019B922EA000098617047104398617047FB
:100C680000380240044B1A6A19B922EA00001862D7
:100C7800704710431862704700380240044B5A6AA4
:100C880019B922EA00005862704710435862704749
:100C980000380240044B1A6D19B922EA00001865A1
:100CA800704710431865704700380240044B5A6D6E
:100CB80019B922EA00005865704710435865704713
:100CC80000380240044B9A6D19B922EA0000986571
:100CD800704710439865704700380240044B1A6EFD
:100CE80019B922EA00001866704710431866704761
:100CF80000380240044B5A6E19B922EA00005866BF
:100D0800704710435866704700380240044B1A7801
:100D180019B922EA0000187070471043187070471C
:100D28000D3802404309012B0BD0022B064B0CBF98
:100D38001B6F5B6F00F01F0023FA00F000F001004A
:100D48007047014B1B68F5E700380240024B5A6FA9
:100D580042F080725A67704700380240034BDB68E4
:100D680018420CBF00200120704700BF0038024025
:100D7800014B1870704700BF0E38024008B53C4B55
:100D8800984224D03B4B98422BD03B4B984232D0D0
:100D98003A4B984239D03A4B984240D0394B984216
:100DA80047D0394B98424ED0384B984255D0384BA3
:100DB800984200D008BD01214FF48070FFF72EFF44
:100DC8004FF480700021BDE80840FFF727BF0120DD
:100DD8000146FFF723FF01200021BDE80840FFF787
:100DE8001DBF02200121FFF719FF02200021BDE8E5
:100DF8000840FFF713BF04200121FFF70FFF04206D
:100E08000021BDE80840FFF709BF08200121FFF7CE
:100E180005FF08200021BDE80840FFF7FFBE1020AD
:100E28000121FFF7FBFE10200021BDE80840FFF775
:100E3800F5BE20200121FFF7F1FE20200021BDE8AA
:100E48000840FFF7EBBE40200121FFF7E7FE4020F6
:100E58000021BDE80840FFF7E1BE80200121FFF72F
:100E6800DDFE80200021BDE80840FFF7D7BE00BFA7
:100E7800000002400004024000080240000C02404A
:100E8800001002400014024000180240001C0240FA
:100E98000020024000222DE9F00713460E680127C2
:100EA8004FF0030803E001330232102B2BD007FA6E
:100EB80003F404EA0605A542F5D1D0F8009091F8AC
:100EC80004C008FA02F4E44304EA0909C0F80090EF
:100ED800D0F800900CFA02FA0CF1FF3C4AEA090932
:100EE800BCF1010FC0F8009010D9C56891F807C08F
:100EF8002C40C460C5680CFA02F401332C4302325A
:100F0800102BC460D3D1BDE8F0077047D0F808A013
:100F180091F8059091F806C004EA0A0AC0F808A0FA
:100F2800D0F808A009FA02F949EA0A09C0F80890B5
:100F3800D0F8049029EA0505456045680CFA03FCD9
:100F48001FFA8CFC4CEA05054560CEE700234FF6F6
:100F5800FF720260037143718371C371704700BFF0
:100F680082B04FF480330193019B0B430193019BA3
:100F7800C361C161019BC361C3690193C3690193E3
:100F880002B07047036919420CBF00200120704766
:100F9800006980B2704700BF436919420CBF002046
:100FA80001207047406980B2704700BF01837047D5
:100FB800418370470AB9418370470183704700BF76
:100FC800416170474369594041617047CB08083314
:100FD80001F0070130B4890050F823500F2404FAB7
:100FE80001F425EA040440F8234050F8234002FAAB
:100FF80001F2144340F8234030BC704708B52B4B2E
:10100800984219D02A4B984220D02A4B984229D08E
:10101800294B984232D0294B98423BD0284B9842D2
:1010280000D008BD20200121FFF728FE2020002144
:10103800BDE80840FFF722BE10200121FFF71EFE81
:1010480010200021BDE80840FFF718BE01214FF429
:101058000030FFF707FE4FF400300021BDE80840DC
:10106800FFF700BE01214FF48020FFF7FBFD4FF48E
:1010780080200021BDE80840FFF7F4BD01214FF4AE
:101088000020FFF7EFFD4FF400200021BDE80840E5
:10109800FFF7E8BD01214FF48010FFF7E3FD4FF49F
:1010A80080100021BDE80840FFF7DCBD00100140BA
:1010B8000044004000480040004C00400050004000
:1010C80000140140028ACB8822F440521204F0B581
:1010D800120C04461A4348890F898E880D4689895F
:1010E8002282A38923F4B05323F00C0347EA0602B3
:1010F8001B0402431B0C92B21343A381A38A23F45B
:1011080040731B041B0C0B4385B0A3826846FFF792
:10111800D7FC204B9C4226D003F580639C4222D00A
:10112800A38902991BB2002B22DB286801EB8101FD
:1011380001EB81018000B1FBF0F21749A089A1FB06
:1011480002535B0900B21E016425002803FB152326
:1011580017DB1B013233A1FB0351C1F343113143A8
:10116800218105B0F0BDA38903991BB2002BDCDAFD
:101178002B6801EB810101EB81015B00B1FBF3F20C
:10118800DBE7DB003233A1FB0321C1F3421131431A
:10119800E6E700BF001001401F85EB514FF41652DF
:1011A800002302600C228380C380038142818381F3
:1011B800704700BF0A88038A30B44D888C88C98874
:1011C8002A4323F4706322431B040A431B0C92B284
:1011D8001343038230BC704700230380438083801D
:1011E800C3807047838929B923F400531B041B0C5F
:1011F800838170479BB243F400538381704700BFDB
:10120800038B03F47F430383038B9BB2194301834E
:10121800704700BF838919B95B045B0C83817047F1
:101228006FEA43436FEA534383817047838A29B93E
:1012380023F400631B041B0C838270479BB243F4A6
:1012480000638382704700BFC905C90D818070475C
:101258008088C005C00D7047038A23F00F031B0464
:101268001B0C0382038A9BB219430182704700BF9B
:10127800838929B923F002031B041B0C838170475F
:101288009BB243F002038381704700BF838923F434
:1012980000631B041B0C838183899BB219438181E2
:1012A800704700BF038A23F020031B041B0C038232
:1012B800038A9BB219430182704700BF038A29B988
:1012C80023F480431B041B0C038270479BB243F436
:1012D80080430382704700BF83899BB243F00103B8
:1012E80083817047838A29B923F008031B041B0CE8
:1012F800838270479BB243F008038382704700BF24
:10130800038BDBB20383038B9BB243EA0121018386
:10131800704700BF838A29B923F020031B041B0CE4
:10132800838270479BB243F020038382704700BFDB
:10133800838A29B923F010031B041B0C838270478E
:101348009BB243F010038382704700BF838A23F067
:1013580004031B041B0C8382838A9BB2194381827A
:10136800704700BF838A29B923F002031B041B0CB2
:10137800838270479BB243F002038382704700BFA9
:10138800838A9BB21AB923EA010181827047194303
:101398008182704701F01F0310B4C1F34211012488
:1013A800A14204FA03F30DD002290DD014302AB952
:1013B800026822EA0303036010BC70470268134303
:1013C8000360F9E70C30F2E71030F0E703881942C0
:1013D8000CBF002001207047C9430180704700BF3F
:1013E80010B4C1F34213012401F01F02A34204FA0E
:1013F80002F214D0022B0CBF038A838A9BB21340DB
:10140800028892B24BB1090A012303FA01F1114291
:101418000CBF0020012010BC70471846FBE78389E9
:101428009BB21340ECE700BF090A012303FA01F15C
:10143800C9430180704700BF2DE9F041FFF7C4F9A7
:10144800FEF77EFFFFF77AF847F61220FEF7B2FFA5
:10145800454B002103F5805203F8011F9342FBD14D
:101468004249002201F1800341F8042F00259942E6
:10147800FAD13F4C3F4F44F8785C012001462A4698
:101488002B4644F8745C44F8705C44F86C5CFEF7D6
:1014980067FF2646FFF70EF848B3032D2FD054F800
:1014A8006C3C04EB830353F8F88CFFF765F8804530
:1014B8004FF00000EED956F8742C01321205120DC7
:1014C800531C1B051B0DB95CFA5C01331B051B0D76
:1014D80046F8743CFFF7B8F856F86C3C013303F053
:1014E8001F0346F86C3CFEF7E5FF0028D5D1FEF750
:1014F800EBFF63190135032D03F8680CCFD114F8FD
:10150800671C14F8662C0020FFF782F854F8708CDA
:10151800FFF732F854F8782C14F8683C54F8705CEB
:10152800BB5401321205120D531C1B051B0D591C0F
:1015380014F867CC14F866EC07F802C000F5F4203C
:101548000135090504EB880805F01F0500F59070C2
:10155800090D44F8705C07F803E048F8F80C44F803
:10156800781C00259BE700BF47000020441000209E
:101578004011002048000020002100F004B80D4B65
:101588005B58435004310C480C4B42189A42FFF404
:10159800F6AF0B4A00F003B8002342F8043B094BAE
:1015A8009A42FFF4F9AFFFF7EFF800F00FF8FFF7F2
:1015B80043FF70476C160008000000202800002038
:1015C8002C000020EC200020FFF7FEBF70B500249F
:1015D8000D4B0E4D1E46ED1AAD1003E056F82420B3
:1015E80001349047AC42F9D100F02CF8084D094B72
:1015F8000024ED1A1E46AD1003E056F824200134ED
:101608009047AC42F9D170BD641600086416000812
:1016180068160008641600080100000002000000B7
:101628000400000008000000100000000000024054
:101638000004024000080240000C02400010024072
:1016480000000000F8B500BFF8BC08BC9E46704713
:0C165800F8B500BFF8BC08BC9E46704707
:041664001102000867
:04166800E101000894
:10166C000000000000000000000000000102030464
:10167C00060708090024F40000000000010203041E
:08168C0001020304060708092E
:041694000000000052
:040000050800158159
:00000001FF
