:020000040800F2
:10000000FFFF002089090008D1090008D109000874
:10001000D1090008D1090008D1090008000000003A
:10002000000000000000000000000000D1090008EE
:10003000D109000800000000D1090008D10900081A
:10004000D1090008D1090008D1090008D109000828
:10005000D1090008D1090008D1090008D109000818
:10006000D1090008D1090008D1090008D109000808
:10007000D1090008D1090008D1090008D1090008F8
:10008000D1090008D1090008D1090008D1090008E8
:10009000D1090008D1090008D1090008D1090008D8
:1000A000D1090008D1090008D1090008D1090008C8
:1000B00045060008D1090008D1090008D109000847
:1000C000D1090008D1090008D1090008D1090008A8
:1000D000D1090008A1050008D1090008D1090008CC
:1000E000D1090008D1090008D1090008D109000888
:1000F000D1090008D1090008D1090008D109000878
:10010000D1090008D1090008D1090008D109000867
:10011000D1090008D1090008D1090008D109000857
:10012000D1090008D1090008D1090008D109000847
:10013000D1090008D1090008D1090008D109000837
:10014000D1090008D1090008D1090008D109000827
:10015000D1090008D1090008D1090008D109000817
:10016000D1090008D1090008D1090008D109000807
:10017000D1090008D1090008D1090008D1090008F7
:08018000D1090008D1090008B3
:1001880040F21C03C2F200031A780AB90120187061
:10019800704700BF40F21800C2F2000008B50368BB
:1001A8002BB140F20003C0F2000303B1984708BD29
:1001B80040F22003C2F2000370B41968D3F830513A
:1001C80048F2B5164A1CC1F64E36A6FB0264591809
:1001D80064094FF4967606FB1422013508711A60FB
:1001E800C3F8305170BC70472DE9F84340F2200540
:1001F80000F072FBC2F2000540F2B913C0F600032A
:10020800C5F8343100F0F0F800F0E4F947F61220B0
:10021800D5F8341100F032F9002305F59C721E461A
:10022800D650043340F22004802BC2F20004F7D1E8
:10023800012730463946324633462660C4F8B8614D
:10024800C4F8BC61C4F8C061C4F8306184F8C471F2
:1002580000F0DEF848F2B518C1F64E384FF496793A
:10026800D5F8300102282AD9D4F8B83122689A4240
:1002780025D0E61800207179B27900F01FFAD4F879
:10028800BC7100F0C9F994F8C42104EB870E82F020
:10029800010600F1050C7B1C002003F01F07014636
:1002A80033460246CEF838C184F8C461C4F8BC713C
:1002B80000F0AEF8D4F83061F11EC4F83011D5F86A
:1002C800C031D5F8BC019842CAD004EB8301D1F8FB
:1002D800387100F0A1F98742C2D9D4F8B831226840
:1002E8009A42BDD004EB030C00209CF805109CF842
:1002F800062000F005FAD4F8B831D4F8C021DF1C84
:10030800A8FB07067109501C09FB117300F01F06B2
:10031800C4F8B831C4F8C061A2E700BF2DE9F00104
:100328004FF4605540F63424C4F20205C0F60004C8
:10033800D5F830C054F820709DF814609DF81880E6
:1003480004EB80004CEA070440692C634C00032549
:100358000768A540ED4305EA070C12FA04F74CEAD2
:1003680007020260426801278F4022EA070C13FA4D
:1003780001F141EA0C0343608268A64005EA0201E4
:100388000E438660C36808FA04F41D402C43C46019
:10039800BDE8F001704700BF70B440F6342C4FF44C
:1003A8006054C4F20204C0F6000C266B5CF82050BE
:1003B8000CEB8003072946EA050020635B690DD82A
:1003C8001C6A03F1200089000F238B4024EA0303F1
:1003D8008A4043EA0201016070BC704703F12400BF
:1003E80008395C6AEFE700BF4FF4605CC4F2020CA6
:1003F8004FF44063DCF83020C4F2020342F00801F5
:10040800CCF83010186840F0AA421A60704700BF54
:1004180030B44FF44064C4F20204656925F47045B1
:10042800656118B1606940F48050606139B14FF47A
:100438004061C4F20201486940F4005048613AB191
:100448004FF44062C4F20202506940F480415161A5
:100458003BB14FF44063C4F202035A6942F40041CD
:10046800596130BC704700BF4FF44063C4F20203C7
:10047800586920F470425A61704700BFF0B540F2E5
:10048800E81CC2F2000C4FF4605EC4F2020E0024B5
:10049800CCF80010CCF80440DEF8306046F00305D4
:1004A800CEF83050DEF8447047F01001CEF8441012
:1004B800DEF8402042F4003383B0CEF840300746DF
:1004C800022120460722FFF767FF072102250A4677
:1004D8000120FFF761FF012629462A4620462346C8
:1004E80000950196FFF71AFF30462A460721234652
:1004F80000950196FFF712FF4FF4044CC1F2D77C28
:10050800AF4048F21F52BCFBF7F7C5F2EB12A2FB53
:1005180007014909642001FB10731E013236A2FB52
:100528000605C5F3431C4FF480564FF48845C4F2C2
:100538000106C4F200054CEA011081B22423082206
:10054800348225202C82B381AA81B482AC82318185
:10055800298100F08BF8B3891FFA83FC4CF4005210
:10056800B281A98988B240F40053AB8103B0F0BDD1
:1005780010B471B14FF488420024C4F20002035D44
:100588009380B2F800C01CF0400FFAD00134A142A9
:10059800F5D810BC704700BF38B54FF48054C4F28A
:1005A8000104238813F0200F13D040F2E815C2F29B
:1005B8000005B4F804E029685FFA8EF08847B4F8BB
:1005C80000C069682CF020021304180C4A1C208013
:1005D8006A6038BD4FF46050C4F202004FF08043A7
:1005E800026C40F23F6C42F001014FF47A720164F0
:1005F800A3F828C0DA62988981B241F001029A8191
:10060800B3F800C01FFA8CF040F0810101221C20D1
:1006180019809A8200F02AB840F2F013C2F200035F
:100628001868704740F2F013C2F200031A68801885
:10063800904202D919688842FCD870474FF0804030
:10064800038A13F0010F06D040F2F011C2F2000144
:100658000B685A1C0A604FF0804CBCF8103023F02D
:1006680001010A04100CACF81000704700F11F02D9
:1006780012EA200238BF0246521151014FF4614379
:10068800401ACEF20003012111FA00F043F82200CB
:10069800704700BF00F11F0212EA200238BF02466D
:1006A800521151014FF46143401ACEF20003203237
:1006B800012111FA00F043F82200704710B5102804
:1006C8000B4694BF0021012151EAD31182B015D104
:1006D80012F0800F18BF08460ED100F00F0060F02E
:1006E8006F04032101A88DF804408DF805308DF8BA
:1006F8000620FFF73DFF012002B010BD0020FBE7F8
:1007080010B510280B4694BF0021012151EAD311DE
:1007180082B015D112F0800F18BF08460ED100F034
:100728000F0060F07F04032101A88DF804408DF8C4
:1007380005308DF80620FFF71BFF012002B010BD21
:100748000020FBE710B510280B4694BF00210121BB
:1007580051EAD31182B015D112F0800F18BF0846A4
:100768000ED100F00F0060F05F04032101A88DF89E
:1007780004408DF805308DF80620FFF7F9FE0120BA
:1007880002B010BD0020FBE710B510280B4694BF3F
:100798000021012151EAD31182B015D112F0800F46
:1007A80018BF08460ED100F00F0060F04F04032177
:1007B80001A88DF804408DF805308DF80620FFF764
:1007C800D7FE012002B010BD0020FBE700B51028BD
:1007D80094BF0022012252EAD11283B00B4602D004
:1007E800002003B000BD00F00F0060F03F020221BE
:1007F80001A88DF804208DF80530FFF7B9FE012017
:10080800EFE700BF00B5102894BF0022012252EA8A
:10081800D11283B00B4602D0002003B000BD00F017
:100828000F0060F02F02022101A88DF804208DF836
:100838000530FFF79DFE0120EFE700BF10B5102837
:100848000B4694BF0021012151EAD31182B015D182
:1008580012F0800F18BF08460ED100F00F0060F0AC
:100868001F04032101A88DF804408DF805308DF888
:100878000620FFF77DFE012002B010BD0020FBE737
:100888004FF4605CC4F2020C0021DCF8003043F045
:100898000102CCF80020CCF80810DCF8000043F284
:1008A800100220F0847323F48030C2F20042CCF8A6
:1008B8000000CCF80420DCF800304FF46D42CEF292
:1008C800000223F480204FF00063CCF80000CCF83D
:1008D8000C109360704700BF4FF46053C4F20203DA
:1008E8009A6802F00C02042A04BF47F64001C0F2DD
:1008F8007D1106D0082A1CBF4FF41051C0F2F40134
:100908000FD04FF46050C4F2020040F20403826832
:10091800C2F20003C2F3031C13F80C00C1401961B2
:10092800704758685A68596810F4800F4FF4605C33
:1009380014BF47F640034FF41053C4F2020C14BF1F
:10094800C0F27D13C0F2F40302F03F02C1F3881035
:10095800B3FBF2F1DCF80430C3F3014201FB00F110
:10096800501C4300B1FBF3F1CBE700BF640A000859
:1009780000000020180000201C000020F4010020C6
:10098800002103E00B4B5B58435004310A480B4BE2
:1009980042189A42F6D30A4A02E0002342F8043B7E
:1009A800084B9A42F9D3FFF76BFF00F00FF8FFF7F7
:1009B8001BFC7047640A0008000000201800002093
:1009C8001C000020F4010020FEE7000070B50024A0
:1009D8000C4D0D4E761BB61003E055F8043B013460
:1009E8009847B442F9D3094D00F014F8084E002492
:1009F800761BB61003E055F8043B01349847B4421F
:100A0800F9D370BD5C0A00085C0A00085C0A00089B
:100A1800600A0008F8B500BFF8BC08BC9E467047DD
:0C0A2800F8B500BFF8BC08BC9E46704743
:100A340001000000020000000400000008000000A3
:100A440010000000000002400004024000080240C0
:080A5400000C024000100240FA
:040A5C009D010008F0
:040A60008901000800
:100A64000000000000000000000000000102030478
:080A7400060708090024F40044
:040A7C000000000076
:04000005080009895D
:00000001FF
