:020000040800F2
:10000000FFFF00204109000889090008890900084C
:100010008909000889090008890900080000000012
:100020000000000000000000000000008909000836
:1000300089090008000000008909000889090008F2
:100040008909000889090008890900088909000848
:100050008909000889090008890900088909000838
:100060008909000889090008890900088909000828
:100070008909000889090008890900088909000818
:100080008909000889090008890900088909000808
:1000900089090008890900088909000889090008F8
:1000A00089090008890900088909000889090008E8
:1000B000490500088909000889090008890900081C
:1000C00089090008890900088909000889090008C8
:1000D00089090008B1040008890900088909000895
:1000E00089090008890900088909000889090008A8
:1000F0008909000889090008890900088909000898
:100100008909000889090008890900088909000887
:100110008909000889090008890900088909000877
:100120008909000889090008890900088909000867
:100130008909000889090008890900088909000857
:100140008909000889090008890900088909000847
:100150008909000889090008890900088909000837
:100160008909000889090008890900088909000827
:100170008909000889090008890900088909000817
:08018000890900088909000843
:1001880010B5054C237833B9044B13B10448AFF3C9
:1001980000800123237010BD4804002000000000E7
:1001A800600C0008084B10B51BB108490848AFF3AC
:1001B80000800848036803B910BD074B002BFBD02B
:1001C800BDE81040184700BF000000004C040020A4
:1001D800600C00084404002000000000154B002BB0
:1001E80008BF134B9D46A3F5803A00218B460F4666
:1001F8001348144A121A00F0FDFB0F4B002B00D0D5
:1002080098470E4B002B00D098470020002104008F
:100218000D000D48002802D00C4800F0AFFC00F09B
:10022800C1FB2000290000F0E9FA00F0ABFB00BF99
:1002380000000800000000000000000000000000AE
:100248004804002038060020850B0008910B0008A0
:100258000A490B4A70B40C68D1F83051631CA2FBF0
:1002680003620C444FF49676520906FB12330135AB
:100278002071C1F830510B6070BC704764040020D5
:10028800B5814E1BF0B5DFF868E0184CDEF830C0D9
:1002980054F820709DF814609DF8185004EB800401
:1002A8004CEA07076069CEF8307003244F00D0F895
:1002B80000E0BC40E4430EEA040EBA404EEA0202F3
:1002C800026042684FF0010E0EFA01FE8B4022EAEE
:1002D8000E02134343608368BE4023401E4386607A
:1002E800C368BD401C402C43C460F0BD7C0C0008B2
:1002F8000038024070B40F4B0F4D53F820402E6B5E
:1003080003EB80033443072958692C630DD8036A2B
:1003180000F1200489000F20884002FA01F123EA45
:1003280000021143216070BC7047083900F12404B1
:10033800436AEFE77C0C0008003802400549064A8A
:100348000B6B43F008030B63136843F0AA43136075
:10035800704700BF00380240000C024030B40F4C18
:10036800656925F47045656118B1606940F480508D
:10037800606121B10948416941F40051416122B1EC
:1003880006494A6942F480424A6123B1034A5369E3
:1003980043F40043536130BC704700BF000C024077
:1003A800024A536923F4704353617047000C0240BA
:1003B800304B1A6B2DE9F0412F4E304D316042F031
:1003C80003021A635A6C42F010025A641A6C002431
:1003D80042F4003282B01A640746072220460221FE
:1003E8007460FFF787FF0722012080460226114626
:1003F800FFF780FF234620468DE84001324631460C
:10040800FFF740FF8DE8400132464046234607216A
:10041800FFF738FF1A4B1B491B4E2C82BA00B1FB61
:10042800F2F2A3FB02177F09642107FB11221201D4
:100438003232A3FB0223C3F3431343EA07139BB2ED
:100448002421082234822520A981B281AC82B48279
:100458002B81338100F088F8AB899BB243F40053B9
:10046800AB81B3899BB243F40053B38102B0BDE8BA
:10047800F08100BF003802402C0600200010014027
:100488001F85EB510084D7170044004049B1054A45
:10049800014410F8013B938013885B06FCD5884221
:1004A800F7D170470044004038B5094C23889B06B3
:1004B8000DD5084DA0882B68C0B2984723886A6874
:1004C80023F020031B0401321B0C6A60238038BD13
:1004D800001001402C0600200F490A6C4FF08043A1
:1004E80010B442F0010240F23F644FF47A700A649B
:1004F8001C85D8629A895DF8044B92B242F00102D9
:100508009A811A8892B242F0810201211A801C2035
:10051800998200F029B800BF00380240014B1868E2
:10052800704700BF34060020044A136818449842F4
:1005380002D913688342FCD3704700BF34060020F9
:100548004FF080431B8ADB0703D5064A1368013343
:1005580013604FF08042138A23F001031B041B0C25
:10056800138270473406002000280346B8BF00F104
:100578001F035B11A0EB43100122034902FA00F0AC
:1005880041F82300704700BF00E100E0002803465F
:10059800B8BF00F11F035B11A0EB43100122203309
:1005A800024902FA00F041F82300704700E100E038
:1005B800102817D80B0615D4130613D410B500F05D
:1005C8000F0382B00C4663F06F0301A803218DF876
:1005D80004308DF805408DF80620FFF757FF0120FD
:1005E80002B010BD00207047102817D80B0615D48C
:1005F800130613D410B500F00F0382B00C4663F055
:100608007F0301A803218DF804308DF805408DF88B
:100618000620FFF73BFF012002B010BD0020704705
:10062800102817D80B0615D4130613D410B500F0EC
:100638000F0382B00C4663F05F0301A803218DF815
:1006480004308DF805408DF80620FFF71FFF0120C4
:1006580002B010BD00207047102817D80B0615D41B
:10066800130613D410B500F00F0382B00C4663F0E4
:100678004F0301A803218DF804308DF805408DF84B
:100688000620FFF703FF012002B010BD00207047CD
:10069800102814D80B0612D400B500F00F0383B04D
:1006A8000A4663F03F0301A802218DF804308DF853
:1006B8000520FFF7EBFE012003B05DF804FB0020E6
:1006C800704700BF102814D80B0612D400B500F0EC
:1006D8000F0383B00A4663F02F0301A802218DF8A7
:1006E80004308DF80520FFF7D1FE012003B05DF836
:1006F80004FB0020704700BF102817D80B0615D43C
:10070800130613D410B500F00F0382B00C4663F043
:100718001F0301A803218DF804308DF805408DF8DA
:100728000620FFF7B3FE012002B010BD002070477D
:100738000D4B0E481A68002142F0010210B41A60ED
:1007480099601A680A4C22F0847222F480321A6086
:100758005C601A684FF0006422F480221A60D96045
:1007680084605DF8044B70470038024000ED00E0FB
:10077800103000241848836803F00C03042B28D099
:10078800082B09D0154B144A15499268C2F3031275
:100798008A5CD3400B6170474368416813F4800F4B
:1007A800436818BF0F4801F03F020CBF0B49B0FB6C
:1007B800F2F1C3F3881308BFB1FBF2F101FB03F2B6
:1007C800054B5B68C3F3014301335B00B2FBF3F3F2
:1007D800D9E7044BD7E700BF003802400024F400F3
:1007E8000400002040787D01BC0C000800000020B7
:1007F8004404002048040020380600202DE9F04772
:100808004A4DFFF7B7FF4A4BC5F83431FFF796FD5D
:10081800FFF762FED5F8341147F61220FFF7C8FD3E
:1008280005F59A7305F5DA71002243F8042F8B4217
:100838004FF00004F9D101262346324631463046AE
:100848002C60C5F8B841C5F8BC41C5F8C041C5F829
:10085800304185F8C461354CDFF8D8A0FFF77EFD3C
:100868002646D5F83031022B30D9D4F8B831226871
:1008780093424FF0000004EB030127D08A794979AD
:10088800FFF796FED4F8BC717B1CC4F8BC31FFF7A7
:1008980045FE94F8C4E1D4F8BC118EF0010E002294
:1008A80004EB870800F10509734601F01F0710469D
:1008B8001146C8F8389184F8C4E1C4F8BC71FFF750
:1008C8004DFDD4F83031033BC4F83031D5F8C03190
:1008D800D5F8BC219A42C4D006EB8303D3F83881FB
:1008E800FFF71CFE8045BCD9D6F8B83132689A4269
:1008F8004FF0000006EB0301B3D08A794979FFF77E
:1009080073FED6F8B821D6F8C0310332AAFB02012B
:1009180049094FF49670013300FB112203F01F03BD
:10092800C6F8B821C6F8C0319BE700BF64040020B0
:1009380059020008B5814E1B002103E00B4B5B58A0
:10094800435004310A480B4B42189A42F6D30A4ADC
:1009580002E0002342F8043B084B9A42F9D3FFF720
:10096800E7FE00F01FF8FFF749FF7047BC0C0008CE
:10097800000000204404002048040020380600201D
:10098800FEE7000008B50021044600F08BF8044B90
:100998001868C36B03B19847204600F05BF900BFA5
:1009A800A40C000870B50F4E0F4D761BB61018BF7B
:1009B800002405D0013455F8043B9847A642F9D1E4
:1009C8000A4E0B4D761B00F049F9B61018BF0024EB
:1009D80006D0013455F8043B9847A642F9D170BDBA
:1009E80070BD00BFB00C0008B00C0008B80C0008BF
:1009F800B00C000870B4840746D0541E002A41D0B9
:100A0800CDB2034602E0621EE4B3144603F8015B6C
:100A18009A07F8D1032C2ED9CDB245EA05250F2C1B
:100A280045EA054519D903F110022646103E0F2E56
:100A380042F8105C42F80C5C42F8085C42F8045C2E
:100A480002F11002F2D8A4F1100222F00F0204F011
:100A58000F041032032C13440DD91E462246043AC3
:100A6800032A46F8045BFAD8221F22F00302043254
:100A7800134404F003042CB1C9B21C4403F8011B4D
:100A8800A342FBD170BC704714460346C2E700BFBF
:100A9800024B13B1024800F071B870470000000023
:100AA800910B00082DE9F04F324B85B01B6802937B
:100AB80003F5A47301900E460393029BD3F8487183
:100AC8003FB3DDF80CA04FF00109D3467C68651EE2
:100AD8000ED4013407EB84044FF00008E6B1D4F8D3
:100AE80000319E4218D0013D6B1CA4F10404F5D1DD
:100AF800214B73B17B68002B36D13B68002B34D077
:100B08003846CBF80030AFF30080DBF80070002FD8
:100B1800DCD105B0BDE8F08F7B682268013BAB42B1
:100B28000CBF7D60C4F80080002ADCD0D7F888119B
:100B3800D7F804A009FA05F30B420FD0D7F88C11A7
:100B48000B420DD1D4F88010019890477B6853452B
:100B5800B3D1DBF80030BB42C5D0AEE79047F5E72C
:100B6800D4F880009047F1E73B68BB461F46002F4A
:100B7800ACD1CEE7A40C0008000000000023014619
:100B88001A46184600F014B838B5074D074C2C1B08
:100B9800A41005D0013C55F8043D9847002CF9D124
:100BA800BDE8384000F060B8BC0C0008B80C00087C
:100BB8002DE9F047254C2568D5F848410646884672
:100BC80092469946C4B360681F2817DC431C76B167
:100BD80004EB80050122C5F888A0D4F8881182406A
:100BE8001143022EC4F88811C5F808911ED00230AE
:100BF800636044F820800020BDE8F087144B03B3FD
:100C08004FF4C870AFF300800446D0B1D5F848312E
:100C1800002780E88800C5F8484138460123C4F811
:100C28008871C4F88C71002EE1D0D1E7D4F88C110A
:100C38000A43C4F88C21DAE705F5A674C5F84841DB
:100C4800C1E74FF0FF30BDE8F08700BFA40C0008F3
:100C580000000000FEE700BF00000000F8B500BF7C
:100C6800F8BC08BC9E467047F8B500BFF8BC08BC85
:040C78009E467047DD
:100C7C000100000002000000040000000800000059
:100C8C001000000000000240000402400008024076
:0C0C9C00000C0240001002401800002074
:080CA8003CF5FF7F0100000094
:080CB000990A0008AD010008DB
:040CB80089010008A6
:100CBC00000000000000000000000000010203041E
:100CCC00060708090024F4000000000004030020BB
:100CDC006C030020D4030020000000000000000082
:100CEC0000000000000000000000000000000000F8
:100CFC0000000000000000000000000000000000E8
:100D0C0000000000000000000000000000000000D7
:100D1C0000000000000000000000000000000000C7
:100D2C0000000000000000000000000000000000B7
:100D3C0000000000000000000000000000000000A7
:100D4C000000000000000000000000000000000097
:100D5C000000000000000000000000000000000087
:100D6C000000000000000000000000000000000077
:100D7C0001000000000000000E33CDAB34126DE614
:100D8C00ECDE05000B00000000000000000000007D
:100D9C000000000000000000000000000000000047
:100DAC000000000000000000000000000000000037
:100DBC000000000000000000000000000000000027
:100DCC000000000000000000000000000000000017
:0410FC0018000020B8
:0411000000000000EB
:0400000508000941A5
:00000001FF
